{
    "abi": [
        {
            "type": "constructor",
            "inputs": [
                {
                    "name": "_token",
                    "type": "address",
                    "internalType": "address"
                }
            ],
            "stateMutability": "nonpayable"
        },
        {
            "type": "function",
            "name": "claim",
            "inputs": [],
            "outputs": [],
            "stateMutability": "nonpayable"
        },
        {
            "type": "function",
            "name": "claimAmount",
            "inputs": [],
            "outputs": [
                {
                    "name": "",
                    "type": "uint256",
                    "internalType": "uint256"
                }
            ],
            "stateMutability": "view"
        },
        {
            "type": "function",
            "name": "cooldown",
            "inputs": [],
            "outputs": [
                {
                    "name": "",
                    "type": "uint256",
                    "internalType": "uint256"
                }
            ],
            "stateMutability": "view"
        },
        {
            "type": "function",
            "name": "fund",
            "inputs": [
                {
                    "name": "amount",
                    "type": "uint256",
                    "internalType": "uint256"
                }
            ],
            "outputs": [],
            "stateMutability": "nonpayable"
        },
        {
            "type": "function",
            "name": "lastClaimTime",
            "inputs": [
                {
                    "name": "",
                    "type": "address",
                    "internalType": "address"
                }
            ],
            "outputs": [
                {
                    "name": "",
                    "type": "uint256",
                    "internalType": "uint256"
                }
            ],
            "stateMutability": "view"
        },
        {
            "type": "function",
            "name": "owner",
            "inputs": [],
            "outputs": [
                {
                    "name": "",
                    "type": "address",
                    "internalType": "address"
                }
            ],
            "stateMutability": "view"
        },
        {
            "type": "function",
            "name": "renounceOwnership",
            "inputs": [],
            "outputs": [],
            "stateMutability": "nonpayable"
        },
        {
            "type": "function",
            "name": "setClaimAmount",
            "inputs": [
                {
                    "name": "_claimAmount",
                    "type": "uint256",
                    "internalType": "uint256"
                }
            ],
            "outputs": [],
            "stateMutability": "nonpayable"
        },
        {
            "type": "function",
            "name": "setCooldown",
            "inputs": [
                {
                    "name": "_cooldown",
                    "type": "uint256",
                    "internalType": "uint256"
                }
            ],
            "outputs": [],
            "stateMutability": "nonpayable"
        },
        {
            "type": "function",
            "name": "token",
            "inputs": [],
            "outputs": [
                {
                    "name": "",
                    "type": "address",
                    "internalType": "contract IERC20"
                }
            ],
            "stateMutability": "view"
        },
        {
            "type": "function",
            "name": "transferOwnership",
            "inputs": [
                {
                    "name": "newOwner",
                    "type": "address",
                    "internalType": "address"
                }
            ],
            "outputs": [],
            "stateMutability": "nonpayable"
        },
        {
            "type": "function",
            "name": "withdraw",
            "inputs": [
                {
                    "name": "amount",
                    "type": "uint256",
                    "internalType": "uint256"
                }
            ],
            "outputs": [],
            "stateMutability": "nonpayable"
        },
        {
            "type": "event",
            "name": "Claimed",
            "inputs": [
                {
                    "name": "user",
                    "type": "address",
                    "indexed": true,
                    "internalType": "address"
                },
                {
                    "name": "amount",
                    "type": "uint256",
                    "indexed": false,
                    "internalType": "uint256"
                }
            ],
            "anonymous": false
        },
        {
            "type": "event",
            "name": "OwnershipTransferred",
            "inputs": [
                {
                    "name": "previousOwner",
                    "type": "address",
                    "indexed": true,
                    "internalType": "address"
                },
                {
                    "name": "newOwner",
                    "type": "address",
                    "indexed": true,
                    "internalType": "address"
                }
            ],
            "anonymous": false
        },
        {
            "type": "error",
            "name": "AurumGoldFaucet__CooldownPeriodHasNotPassed",
            "inputs": []
        },
        {
            "type": "error",
            "name": "AurumGoldFaucet__NeedsMoreThanZero",
            "inputs": []
        },
        {
            "type": "error",
            "name": "OwnableInvalidOwner",
            "inputs": [
                {
                    "name": "owner",
                    "type": "address",
                    "internalType": "address"
                }
            ]
        },
        {
            "type": "error",
            "name": "OwnableUnauthorizedAccount",
            "inputs": [
                {
                    "name": "account",
                    "type": "address",
                    "internalType": "address"
                }
            ]
        }
    ],
    "bytecode": {
        "object": "0x6080604052678ac7230489e8000060025562015180600355348015610022575f5ffd5b50604051610e48380380610e488339818101604052810190610044919061022a565b335f73ffffffffffffffffffffffffffffffffffffffff168173ffffffffffffffffffffffffffffffffffffffff16036100b5575f6040517f1e4fbdf70000000000000000000000000000000000000000000000000000000081526004016100ac9190610264565b60405180910390fd5b6100c48161010b60201b60201c565b508060015f6101000a81548173ffffffffffffffffffffffffffffffffffffffff021916908373ffffffffffffffffffffffffffffffffffffffff1602179055505061027d565b5f5f5f9054906101000a900473ffffffffffffffffffffffffffffffffffffffff169050815f5f6101000a81548173ffffffffffffffffffffffffffffffffffffffff021916908373ffffffffffffffffffffffffffffffffffffffff1602179055508173ffffffffffffffffffffffffffffffffffffffff168173ffffffffffffffffffffffffffffffffffffffff167f8be0079c531659141344cd1fd0a4f28419497f9722a3daafe3b4186f6b6457e060405160405180910390a35050565b5f5ffd5b5f73ffffffffffffffffffffffffffffffffffffffff82169050919050565b5f6101f9826101d0565b9050919050565b610209816101ef565b8114610213575f5ffd5b50565b5f8151905061022481610200565b92915050565b5f6020828403121561023f5761023e6101cc565b5b5f61024c84828501610216565b91505092915050565b61025e816101ef565b82525050565b5f6020820190506102775f830184610255565b92915050565b610bbe8061028a5f395ff3fe608060405234801561000f575f5ffd5b50600436106100b2575f3560e01c80638da5cb5b1161006f5780638da5cb5b1461013e578063b1c7ef0c1461015c578063b77cf9c614610178578063ca1d209d146101a8578063f2fde38b146101c4578063fc0c546a146101e0576100b2565b80632e1a7d4d146100b65780634e71d92d146100d25780634fc3f41a146100dc578063715018a6146100f8578063787a08a614610102578063830953ab14610120575b5f5ffd5b6100d060048036038101906100cb91906108f8565b6101fe565b005b6100da6102e8565b005b6100f660048036038101906100f191906108f8565b6104e8565b005b610100610535565b005b61010a610548565b6040516101179190610932565b60405180910390f35b61012861054e565b6040516101359190610932565b60405180910390f35b610146610554565b604051610153919061098a565b60405180910390f35b610176600480360381019061017191906108f8565b61057b565b005b610192600480360381019061018d91906109cd565b6105c8565b60405161019f9190610932565b60405180910390f35b6101c260048036038101906101bd91906108f8565b6105dd565b005b6101de60048036038101906101d991906109cd565b6106c9565b005b6101e861074d565b6040516101f59190610a53565b60405180910390f35b610206610772565b805f8103610240576040517f67a7c1f500000000000000000000000000000000000000000000000000000000815260040160405180910390fd5b60015f9054906101000a900473ffffffffffffffffffffffffffffffffffffffff1673ffffffffffffffffffffffffffffffffffffffff1663a9059cbb610285610554565b846040518363ffffffff1660e01b81526004016102a3929190610a6c565b6020604051808303815f875af11580156102bf573d5f5f3e3d5ffd5b505050506040513d601f19601f820116820180604052508101906102e39190610ac8565b505050565b5f60045f3373ffffffffffffffffffffffffffffffffffffffff1673ffffffffffffffffffffffffffffffffffffffff1681526020019081526020015f20541415801561037e575060035460045f3373ffffffffffffffffffffffffffffffffffffffff1673ffffffffffffffffffffffffffffffffffffffff1681526020019081526020015f205461037b9190610b20565b42105b156103b5576040517fe985e83500000000000000000000000000000000000000000000000000000000815260040160405180910390fd5b4260045f3373ffffffffffffffffffffffffffffffffffffffff1673ffffffffffffffffffffffffffffffffffffffff1681526020019081526020015f208190555060015f9054906101000a900473ffffffffffffffffffffffffffffffffffffffff1673ffffffffffffffffffffffffffffffffffffffff1663a9059cbb336002546040518363ffffffff1660e01b8152600401610455929190610a6c565b6020604051808303815f875af1158015610471573d5f5f3e3d5ffd5b505050506040513d601f19601f820116820180604052508101906104959190610ac8565b503373ffffffffffffffffffffffffffffffffffffffff167fd8138f8a3f377c5259ca548e70e4c2de94f129f5a11036a15b69513cba2b426a6002546040516104de9190610932565b60405180910390a2565b6104f0610772565b805f810361052a576040517f67a7c1f500000000000000000000000000000000000000000000000000000000815260040160405180910390fd5b816003819055505050565b61053d610772565b6105465f6107f9565b565b60035481565b60025481565b5f5f5f9054906101000a900473ffffffffffffffffffffffffffffffffffffffff16905090565b610583610772565b805f81036105bd576040517f67a7c1f500000000000000000000000000000000000000000000000000000000815260040160405180910390fd5b816002819055505050565b6004602052805f5260405f205f915090505481565b6105e5610772565b805f810361061f576040517f67a7c1f500000000000000000000000000000000000000000000000000000000815260040160405180910390fd5b60015f9054906101000a900473ffffffffffffffffffffffffffffffffffffffff1673ffffffffffffffffffffffffffffffffffffffff166323b872dd610664610554565b30856040518463ffffffff1660e01b815260040161068493929190610b53565b6020604051808303815f875af11580156106a0573d5f5f3e3d5ffd5b505050506040513d601f19601f820116820180604052508101906106c49190610ac8565b505050565b6106d1610772565b5f73ffffffffffffffffffffffffffffffffffffffff168173ffffffffffffffffffffffffffffffffffffffff1603610741575f6040517f1e4fbdf7000000000000000000000000000000000000000000000000000000008152600401610738919061098a565b60405180910390fd5b61074a816107f9565b50565b60015f9054906101000a900473ffffffffffffffffffffffffffffffffffffffff1681565b61077a6108ba565b73ffffffffffffffffffffffffffffffffffffffff16610798610554565b73ffffffffffffffffffffffffffffffffffffffff16146107f7576107bb6108ba565b6040517f118cdaa70000000000000000000000000000000000000000000000000000000081526004016107ee919061098a565b60405180910390fd5b565b5f5f5f9054906101000a900473ffffffffffffffffffffffffffffffffffffffff169050815f5f6101000a81548173ffffffffffffffffffffffffffffffffffffffff021916908373ffffffffffffffffffffffffffffffffffffffff1602179055508173ffffffffffffffffffffffffffffffffffffffff168173ffffffffffffffffffffffffffffffffffffffff167f8be0079c531659141344cd1fd0a4f28419497f9722a3daafe3b4186f6b6457e060405160405180910390a35050565b5f33905090565b5f5ffd5b5f819050919050565b6108d7816108c5565b81146108e1575f5ffd5b50565b5f813590506108f2816108ce565b92915050565b5f6020828403121561090d5761090c6108c1565b5b5f61091a848285016108e4565b91505092915050565b61092c816108c5565b82525050565b5f6020820190506109455f830184610923565b92915050565b5f73ffffffffffffffffffffffffffffffffffffffff82169050919050565b5f6109748261094b565b9050919050565b6109848161096a565b82525050565b5f60208201905061099d5f83018461097b565b92915050565b6109ac8161096a565b81146109b6575f5ffd5b50565b5f813590506109c7816109a3565b92915050565b5f602082840312156109e2576109e16108c1565b5b5f6109ef848285016109b9565b91505092915050565b5f819050919050565b5f610a1b610a16610a118461094b565b6109f8565b61094b565b9050919050565b5f610a2c82610a01565b9050919050565b5f610a3d82610a22565b9050919050565b610a4d81610a33565b82525050565b5f602082019050610a665f830184610a44565b92915050565b5f604082019050610a7f5f83018561097b565b610a8c6020830184610923565b9392505050565b5f8115159050919050565b610aa781610a93565b8114610ab1575f5ffd5b50565b5f81519050610ac281610a9e565b92915050565b5f60208284031215610add57610adc6108c1565b5b5f610aea84828501610ab4565b91505092915050565b7f4e487b71000000000000000000000000000000000000000000000000000000005f52601160045260245ffd5b5f610b2a826108c5565b9150610b35836108c5565b9250828201905080821115610b4d57610b4c610af3565b5b92915050565b5f606082019050610b665f83018661097b565b610b73602083018561097b565b610b806040830184610923565b94935050505056fea2646970667358221220628ba510893c80975a5570e91a1774e466c2c9e9fe04e508d7e774acf22168f864736f6c63430008210033",
        "linkReferences": {}
    },
    "methodIdentifiers": {
        "claim()": "4e71d92d",
        "claimAmount()": "830953ab",
        "cooldown()": "787a08a6",
        "fund(uint256)": "ca1d209d",
        "lastClaimTime(address)": "b77cf9c6",
        "owner()": "8da5cb5b",
        "renounceOwnership()": "715018a6",
        "setClaimAmount(uint256)": "b1c7ef0c",
        "setCooldown(uint256)": "4fc3f41a",
        "token()": "fc0c546a",
        "transferOwnership(address)": "f2fde38b",
        "withdraw(uint256)": "2e1a7d4d"
    },
    "id": 37
}