{
    "abi": [
        {
            "type": "constructor",
            "inputs": [
                {
                    "name": "tokenAddress",
                    "type": "address",
                    "internalType": "address"
                },
                {
                    "name": "priceFeedAddress",
                    "type": "address",
                    "internalType": "address"
                },
                {
                    "name": "auAddress",
                    "type": "address",
                    "internalType": "address"
                }
            ],
            "stateMutability": "nonpayable"
        },
        {
            "type": "function",
            "name": "burnAUSD",
            "inputs": [
                {
                    "name": "amount",
                    "type": "uint256",
                    "internalType": "uint256"
                }
            ],
            "outputs": [],
            "stateMutability": "nonpayable"
        },
        {
            "type": "function",
            "name": "depositCollateral",
            "inputs": [
                {
                    "name": "amountCollateral",
                    "type": "uint256",
                    "internalType": "uint256"
                }
            ],
            "outputs": [],
            "stateMutability": "nonpayable"
        },
        {
            "type": "function",
            "name": "depositCollateralAndMintAUSD",
            "inputs": [
                {
                    "name": "amountCollateral",
                    "type": "uint256",
                    "internalType": "uint256"
                },
                {
                    "name": "amountAUSDToMint",
                    "type": "uint256",
                    "internalType": "uint256"
                }
            ],
            "outputs": [],
            "stateMutability": "nonpayable"
        },
        {
            "type": "function",
            "name": "getAUSD",
            "inputs": [],
            "outputs": [
                {
                    "name": "",
                    "type": "address",
                    "internalType": "address"
                }
            ],
            "stateMutability": "view"
        },
        {
            "type": "function",
            "name": "getAUSDMinted",
            "inputs": [
                {
                    "name": "user",
                    "type": "address",
                    "internalType": "address"
                }
            ],
            "outputs": [
                {
                    "name": "",
                    "type": "uint256",
                    "internalType": "uint256"
                }
            ],
            "stateMutability": "view"
        },
        {
            "type": "function",
            "name": "getAccountCollateralValueInUsd",
            "inputs": [
                {
                    "name": "user",
                    "type": "address",
                    "internalType": "address"
                }
            ],
            "outputs": [
                {
                    "name": "",
                    "type": "uint256",
                    "internalType": "uint256"
                }
            ],
            "stateMutability": "view"
        },
        {
            "type": "function",
            "name": "getAccountInformation",
            "inputs": [
                {
                    "name": "user",
                    "type": "address",
                    "internalType": "address"
                }
            ],
            "outputs": [
                {
                    "name": "",
                    "type": "tuple",
                    "internalType": "struct AurumEngine.AccountInfo",
                    "components": [
                        {
                            "name": "healthFactor",
                            "type": "uint256",
                            "internalType": "uint256"
                        },
                        {
                            "name": "totalAUSDMinted",
                            "type": "uint256",
                            "internalType": "uint256"
                        },
                        {
                            "name": "collateralValueInUsd",
                            "type": "uint256",
                            "internalType": "uint256"
                        }
                    ]
                }
            ],
            "stateMutability": "view"
        },
        {
            "type": "function",
            "name": "getAdditionalFeedPrecision",
            "inputs": [],
            "outputs": [
                {
                    "name": "",
                    "type": "uint256",
                    "internalType": "uint256"
                }
            ],
            "stateMutability": "pure"
        },
        {
            "type": "function",
            "name": "getAmountCollateral",
            "inputs": [
                {
                    "name": "user",
                    "type": "address",
                    "internalType": "address"
                }
            ],
            "outputs": [
                {
                    "name": "",
                    "type": "uint256",
                    "internalType": "uint256"
                }
            ],
            "stateMutability": "view"
        },
        {
            "type": "function",
            "name": "getCollateralTokenPriceFeed",
            "inputs": [],
            "outputs": [
                {
                    "name": "",
                    "type": "address",
                    "internalType": "address"
                }
            ],
            "stateMutability": "view"
        },
        {
            "type": "function",
            "name": "getHealthFactor",
            "inputs": [
                {
                    "name": "user",
                    "type": "address",
                    "internalType": "address"
                }
            ],
            "outputs": [
                {
                    "name": "",
                    "type": "uint256",
                    "internalType": "uint256"
                }
            ],
            "stateMutability": "view"
        },
        {
            "type": "function",
            "name": "getLiquidationBonus",
            "inputs": [],
            "outputs": [
                {
                    "name": "",
                    "type": "uint256",
                    "internalType": "uint256"
                }
            ],
            "stateMutability": "pure"
        },
        {
            "type": "function",
            "name": "getLiquidationCloseFactor",
            "inputs": [],
            "outputs": [
                {
                    "name": "",
                    "type": "uint256",
                    "internalType": "uint256"
                }
            ],
            "stateMutability": "pure"
        },
        {
            "type": "function",
            "name": "getLiquidationPrecision",
            "inputs": [],
            "outputs": [
                {
                    "name": "",
                    "type": "uint256",
                    "internalType": "uint256"
                }
            ],
            "stateMutability": "pure"
        },
        {
            "type": "function",
            "name": "getLiquidationThreshold",
            "inputs": [],
            "outputs": [
                {
                    "name": "",
                    "type": "uint256",
                    "internalType": "uint256"
                }
            ],
            "stateMutability": "pure"
        },
        {
            "type": "function",
            "name": "getMaxAUSDSupply",
            "inputs": [],
            "outputs": [
                {
                    "name": "",
                    "type": "uint256",
                    "internalType": "uint256"
                }
            ],
            "stateMutability": "pure"
        },
        {
            "type": "function",
            "name": "getMinDustThreshold",
            "inputs": [],
            "outputs": [
                {
                    "name": "",
                    "type": "uint256",
                    "internalType": "uint256"
                }
            ],
            "stateMutability": "pure"
        },
        {
            "type": "function",
            "name": "getMinHealthFactor",
            "inputs": [],
            "outputs": [
                {
                    "name": "",
                    "type": "uint256",
                    "internalType": "uint256"
                }
            ],
            "stateMutability": "pure"
        },
        {
            "type": "function",
            "name": "getPrecision",
            "inputs": [],
            "outputs": [
                {
                    "name": "",
                    "type": "uint256",
                    "internalType": "uint256"
                }
            ],
            "stateMutability": "pure"
        },
        {
            "type": "function",
            "name": "getProtocolFee",
            "inputs": [],
            "outputs": [
                {
                    "name": "",
                    "type": "uint256",
                    "internalType": "uint256"
                }
            ],
            "stateMutability": "pure"
        },
        {
            "type": "function",
            "name": "getTokenAmountFromUsd",
            "inputs": [
                {
                    "name": "usdAmountInWei",
                    "type": "uint256",
                    "internalType": "uint256"
                }
            ],
            "outputs": [
                {
                    "name": "",
                    "type": "uint256",
                    "internalType": "uint256"
                }
            ],
            "stateMutability": "view"
        },
        {
            "type": "function",
            "name": "getUsdValue",
            "inputs": [
                {
                    "name": "amount",
                    "type": "uint256",
                    "internalType": "uint256"
                }
            ],
            "outputs": [
                {
                    "name": "",
                    "type": "uint256",
                    "internalType": "uint256"
                }
            ],
            "stateMutability": "view"
        },
        {
            "type": "function",
            "name": "liquidate",
            "inputs": [
                {
                    "name": "user",
                    "type": "address",
                    "internalType": "address"
                },
                {
                    "name": "debtToCover",
                    "type": "uint256",
                    "internalType": "uint256"
                }
            ],
            "outputs": [],
            "stateMutability": "nonpayable"
        },
        {
            "type": "function",
            "name": "mintAUSD",
            "inputs": [
                {
                    "name": "amountAUSDToMint",
                    "type": "uint256",
                    "internalType": "uint256"
                }
            ],
            "outputs": [],
            "stateMutability": "nonpayable"
        },
        {
            "type": "function",
            "name": "redeemCollateral",
            "inputs": [
                {
                    "name": "amountCollateral",
                    "type": "uint256",
                    "internalType": "uint256"
                }
            ],
            "outputs": [],
            "stateMutability": "nonpayable"
        },
        {
            "type": "function",
            "name": "redeemCollateralAndBurnAUSD",
            "inputs": [
                {
                    "name": "amountCollateral",
                    "type": "uint256",
                    "internalType": "uint256"
                },
                {
                    "name": "amountAUSDToBurn",
                    "type": "uint256",
                    "internalType": "uint256"
                }
            ],
            "outputs": [],
            "stateMutability": "nonpayable"
        },
        {
            "type": "event",
            "name": "CollateralDeposited",
            "inputs": [
                {
                    "name": "user",
                    "type": "address",
                    "indexed": true,
                    "internalType": "address"
                },
                {
                    "name": "amount",
                    "type": "uint256",
                    "indexed": true,
                    "internalType": "uint256"
                }
            ],
            "anonymous": false
        },
        {
            "type": "event",
            "name": "CollateralRedeemed",
            "inputs": [
                {
                    "name": "redeemedFrom",
                    "type": "address",
                    "indexed": true,
                    "internalType": "address"
                },
                {
                    "name": "redeemedTo",
                    "type": "address",
                    "indexed": true,
                    "internalType": "address"
                },
                {
                    "name": "amount",
                    "type": "uint256",
                    "indexed": false,
                    "internalType": "uint256"
                }
            ],
            "anonymous": false
        },
        {
            "type": "event",
            "name": "Liquidated",
            "inputs": [
                {
                    "name": "user",
                    "type": "address",
                    "indexed": true,
                    "internalType": "address"
                },
                {
                    "name": "liquidator",
                    "type": "address",
                    "indexed": true,
                    "internalType": "address"
                },
                {
                    "name": "debtToCover",
                    "type": "uint256",
                    "indexed": false,
                    "internalType": "uint256"
                },
                {
                    "name": "totalCollateralToRedeem",
                    "type": "uint256",
                    "indexed": false,
                    "internalType": "uint256"
                },
                {
                    "name": "protocolShare",
                    "type": "uint256",
                    "indexed": false,
                    "internalType": "uint256"
                }
            ],
            "anonymous": false
        },
        {
            "type": "error",
            "name": "AurumEngine__BreaksHealthFactor",
            "inputs": [
                {
                    "name": "healthFactor",
                    "type": "uint256",
                    "internalType": "uint256"
                }
            ]
        },
        {
            "type": "error",
            "name": "AurumEngine__ExceedsMaxSupply",
            "inputs": []
        },
        {
            "type": "error",
            "name": "AurumEngine__HealthFactorNotImproved",
            "inputs": []
        },
        {
            "type": "error",
            "name": "AurumEngine__HealthFactorOkay",
            "inputs": []
        },
        {
            "type": "error",
            "name": "AurumEngine__MintFailed",
            "inputs": []
        },
        {
            "type": "error",
            "name": "AurumEngine__NeedsMoreThanZero",
            "inputs": []
        },
        {
            "type": "error",
            "name": "AurumEngine__TransferFailed",
            "inputs": []
        },
        {
            "type": "error",
            "name": "ReentrancyGuardReentrantCall",
            "inputs": []
        }
    ],
    "bytecode": {
        "object": "0x60a060405234801561000f575f5ffd5b50604051611d94380380611d94833981810160405281019061003191906101a0565b600161004f61004461011060201b60201c565b61013960201b60201c565b5f0181905550815f5f6101000a81548173ffffffffffffffffffffffffffffffffffffffff021916908373ffffffffffffffffffffffffffffffffffffffff1602179055508260035f6101000a81548173ffffffffffffffffffffffffffffffffffffffff021916908373ffffffffffffffffffffffffffffffffffffffff1602179055508073ffffffffffffffffffffffffffffffffffffffff1660808173ffffffffffffffffffffffffffffffffffffffff16815250505050506101f0565b5f7f9b779b17422d0df92223018b32b4d1fa46e071723d6817e2486d003becc55f005f1b905090565b5f819050919050565b5f5ffd5b5f73ffffffffffffffffffffffffffffffffffffffff82169050919050565b5f61016f82610146565b9050919050565b61017f81610165565b8114610189575f5ffd5b50565b5f8151905061019a81610176565b92915050565b5f5f5f606084860312156101b7576101b6610142565b5b5f6101c48682870161018c565b93505060206101d58682870161018c565b92505060406101e68682870161018c565b9150509250925092565b608051611b706102245f395f81816107b401528181610c9b01528181610dc70152818161101001526110e60152611b705ff3fe608060405234801561000f575f5ffd5b506004361061018c575f3560e01c80638f63d667116100dc578063bad4a01f11610095578063c2efe6ab1161006f578063c2efe6ab14610472578063cf80023e146104a2578063f8a601ac146104be578063fe6bcd7c146104dc5761018c565b8063bad4a01f1461041e578063bcbaf4871461043a578063bd37b775146104565761018c565b80638f63d6671461036c57806393c5103a1461038a5780639670c0bc146103a8578063a5a41031146103c6578063a901e9eb146103e4578063b38f8982146104005761018c565b806359aa9e72116101495780637a87fc12116101235780637a87fc12146102e45780637be564fc146103005780638c1ae6c8146103305780638e3957211461034e5761018c565b806359aa9e72146102785780636c8102c0146102965780637549447e146102b45761018c565b80630510435814610190578063073789e2146101c05780631ab72907146101f0578063241df7c31461020e5780634ae9b8bc1461022a578063545af4fe14610248575b5f5ffd5b6101aa60048036038101906101a59190611598565b61050c565b6040516101b791906115d2565b60405180910390f35b6101da60048036038101906101d59190611598565b6105fe565b6040516101e791906115d2565b60405180910390f35b6101f861060f565b60405161020591906115d2565b60405180910390f35b61022860048036038101906102239190611598565b61061e565b005b610232610667565b60405161023f91906115d2565b60405180910390f35b610262600480360381019061025d9190611645565b61066f565b60405161026f91906115d2565b60405180910390f35b610280610686565b60405161028d91906115d2565b60405180910390f35b61029e61068e565b6040516102ab91906115d2565b60405180910390f35b6102ce60048036038101906102c99190611645565b610696565b6040516102db91906115d2565b60405180910390f35b6102fe60048036038101906102f99190611670565b6106dc565b005b61031a60048036038101906103159190611645565b6106f2565b60405161032791906116fd565b60405180910390f35b61033861073a565b60405161034591906115d2565b60405180910390f35b610356610749565b60405161036391906115d2565b60405180910390f35b610374610751565b60405161038191906115d2565b60405180910390f35b61039261075d565b60405161039f9190611725565b60405180910390f35b6103b0610784565b6040516103bd91906115d2565b60405180910390f35b6103ce610793565b6040516103db91906115d2565b60405180910390f35b6103fe60048036038101906103f99190611670565b61079b565b005b6104086107b1565b6040516104159190611725565b60405180910390f35b61043860048036038101906104339190611598565b6107d8565b005b610454600480360381019061044f919061173e565b610996565b005b610470600480360381019061046b9190611598565b610ba3565b005b61048c60048036038101906104879190611645565b610c05565b60405161049991906115d2565b60405180910390f35b6104bc60048036038101906104b79190611598565b610c4b565b005b6104c6610ea6565b6040516104d391906115d2565b60405180910390f35b6104f660048036038101906104f19190611645565b610eb7565b60405161050391906115d2565b60405180910390f35b5f5f5f5f9054906101000a900473ffffffffffffffffffffffffffffffffffffffff1690505f8173ffffffffffffffffffffffffffffffffffffffff1673__$1f06ac8d622ce42796cee98ba1044ce165$__632ba1c96a90916040518263ffffffff1660e01b815260040161058191906117d7565b60a060405180830381865af415801561059c573d5f5f3e3d5ffd5b505050506040513d601f19601f820116820180604052508101906105c09190611876565b5050509150506402540be400816105d7919061191a565b670de0b6b3a7640000856105eb919061191a565b6105f59190611988565b92505050919050565b5f61060882610ec8565b9050919050565b5f670de0b6b3a7640000905090565b805f8103610658576040517f1afe6f9b00000000000000000000000000000000000000000000000000000000815260040160405180910390fd5b610663823333610fba565b5050565b5f6050905090565b5f5f61067a83611170565b91505080915050919050565b5f6005905090565b5f6064905090565b5f60025f8373ffffffffffffffffffffffffffffffffffffffff1673ffffffffffffffffffffffffffffffffffffffff1681526020019081526020015f20549050919050565b6106e5826107d8565b6106ee81610c4b565b5050565b6106fa611543565b5f610704836111ff565b90505f5f61071185611170565b915091506040518060600160405280848152602001838152602001828152509350505050919050565b5f670de0b6b3a7640000905090565b5f6032905090565b5f6402540be400905090565b5f5f5f9054906101000a900473ffffffffffffffffffffffffffffffffffffffff16905090565b5f670de0b6b3a7640000905090565b5f6005905090565b6107a48161061e565b6107ad82610ba3565b5050565b5f7f0000000000000000000000000000000000000000000000000000000000000000905090565b805f8103610812576040517f1afe6f9b00000000000000000000000000000000000000000000000000000000815260040160405180910390fd5b61081a611287565b5f60035f9054906101000a900473ffffffffffffffffffffffffffffffffffffffff1673ffffffffffffffffffffffffffffffffffffffff166323b872dd3330866040518463ffffffff1660e01b8152600401610879939291906119b8565b6020604051808303815f875af1158015610895573d5f5f3e3d5ffd5b505050506040513d601f19601f820116820180604052508101906108b99190611a22565b9050806108f2576040517ff4643eea00000000000000000000000000000000000000000000000000000000815260040160405180910390fd5b8260015f3373ffffffffffffffffffffffffffffffffffffffff1673ffffffffffffffffffffffffffffffffffffffff1681526020019081526020015f205f82825461093e9190611a4d565b92505081905550823373ffffffffffffffffffffffffffffffffffffffff167fd7243f6f8212d5188fd054141cf6ea89cfc0d91facb8c3afe2f88a135848014260405160405180910390a3506109926112a9565b5050565b805f81036109d0576040517f1afe6f9b00000000000000000000000000000000000000000000000000000000815260040160405180910390fd5b6109d8611287565b5f6109e2846111ff565b9050670de0b6b3a76400008110610a25576040517fe33e814c00000000000000000000000000000000000000000000000000000000815260040160405180910390fd5b5f60025f8673ffffffffffffffffffffffffffffffffffffffff1673ffffffffffffffffffffffffffffffffffffffff1681526020019081526020015f205490505f6064603283610a76919061191a565b610a809190611988565b905080851115610a8e578094505b670de0b6b3a7640000811015610aa2578194505b5f610aac8661050c565b90505f6064600583610abe919061191a565b610ac89190611988565b90505f6064600584610ada919061191a565b610ae49190611988565b90505f8184610af39190611a4d565b90505f8382610b029190611a4d565b9050610b0f8b33846112c3565b610b1a8b30866112c3565b610b258a8c33610fba565b3373ffffffffffffffffffffffffffffffffffffffff168b73ffffffffffffffffffffffffffffffffffffffff167ffcbc974bf3a532baf2bb229db3c37fd58299b62d2d1db6a855dac5b693bb6ff38c8488604051610b8693929190611a80565b60405180910390a35050505050505050610b9e6112a9565b505050565b805f8103610bdd576040517f1afe6f9b00000000000000000000000000000000000000000000000000000000815260040160405180910390fd5b610be5611287565b610bf03333846112c3565b610bf933611457565b610c016112a9565b5050565b5f60015f8373ffffffffffffffffffffffffffffffffffffffff1673ffffffffffffffffffffffffffffffffffffffff1681526020019081526020015f20549050919050565b805f8103610c85576040517f1afe6f9b00000000000000000000000000000000000000000000000000000000815260040160405180910390fd5b610c8d611287565b69d3c21bcecceda1000000827f000000000000000000000000000000000000000000000000000000000000000073ffffffffffffffffffffffffffffffffffffffff166318160ddd6040518163ffffffff1660e01b8152600401602060405180830381865afa158015610d02573d5f5f3e3d5ffd5b505050506040513d601f19601f82011682018060405250810190610d269190611ab5565b610d309190611a4d565b1115610d68576040517fea5b569700000000000000000000000000000000000000000000000000000000815260040160405180910390fd5b8160025f3373ffffffffffffffffffffffffffffffffffffffff1673ffffffffffffffffffffffffffffffffffffffff1681526020019081526020015f205f828254610db49190611a4d565b92505081905550610dc433611457565b5f7f000000000000000000000000000000000000000000000000000000000000000073ffffffffffffffffffffffffffffffffffffffff166340c10f1933856040518363ffffffff1660e01b8152600401610e20929190611ae0565b6020604051808303815f875af1158015610e3c573d5f5f3e3d5ffd5b505050506040513d601f19601f82011682018060405250810190610e609190611a22565b905080610e99576040517fc071c41700000000000000000000000000000000000000000000000000000000815260040160405180910390fd5b50610ea26112a9565b5050565b5f69d3c21bcecceda1000000905090565b5f610ec1826111ff565b9050919050565b5f5f5f5f9054906101000a900473ffffffffffffffffffffffffffffffffffffffff1690505f8173ffffffffffffffffffffffffffffffffffffffff1673__$1f06ac8d622ce42796cee98ba1044ce165$__632ba1c96a90916040518263ffffffff1660e01b8152600401610f3d91906117d7565b60a060405180830381865af4158015610f58573d5f5f3e3d5ffd5b505050506040513d601f19601f82011682018060405250810190610f7c9190611876565b505050915050670de0b6b3a7640000846402540be40083610f9d919061191a565b610fa7919061191a565b610fb19190611988565b92505050919050565b8260025f8473ffffffffffffffffffffffffffffffffffffffff1673ffffffffffffffffffffffffffffffffffffffff1681526020019081526020015f205f8282546110069190611b07565b925050819055505f7f000000000000000000000000000000000000000000000000000000000000000073ffffffffffffffffffffffffffffffffffffffff166323b872dd8330876040518463ffffffff1660e01b815260040161106b939291906119b8565b6020604051808303815f875af1158015611087573d5f5f3e3d5ffd5b505050506040513d601f19601f820116820180604052508101906110ab9190611a22565b9050806110e4576040517ff4643eea00000000000000000000000000000000000000000000000000000000815260040160405180910390fd5b7f000000000000000000000000000000000000000000000000000000000000000073ffffffffffffffffffffffffffffffffffffffff166342966c68856040518263ffffffff1660e01b815260040161113d91906115d2565b5f604051808303815f87803b158015611154575f5ffd5b505af1158015611166573d5f5f3e3d5ffd5b5050505050505050565b5f5f60025f8473ffffffffffffffffffffffffffffffffffffffff1673ffffffffffffffffffffffffffffffffffffffff1681526020019081526020015f205491506111f860015f8573ffffffffffffffffffffffffffffffffffffffff1673ffffffffffffffffffffffffffffffffffffffff1681526020019081526020015f2054610ec8565b9050915091565b5f5f5f61120b84611170565b915091505f606460508361121f919061191a565b6112299190611988565b90505f830361125d577fffffffffffffffffffffffffffffffffffffffffffffffffffffffffffffffff9350505050611282565b82670de0b6b3a764000082611272919061191a565b61127c9190611988565b93505050505b919050565b61128f6114b4565b60026112a161129c6114f5565b61151e565b5f0181905550565b60016112bb6112b66114f5565b61151e565b5f0181905550565b8060015f8573ffffffffffffffffffffffffffffffffffffffff1673ffffffffffffffffffffffffffffffffffffffff1681526020019081526020015f205f82825461130f9190611b07565b925050819055508173ffffffffffffffffffffffffffffffffffffffff168373ffffffffffffffffffffffffffffffffffffffff167fa5f9505801b85736b93411e5083d5a6003f3add45d82754efd49b4cca6b8e0078360405161137391906115d2565b60405180910390a35f60035f9054906101000a900473ffffffffffffffffffffffffffffffffffffffff1673ffffffffffffffffffffffffffffffffffffffff1663a9059cbb84846040518363ffffffff1660e01b81526004016113d8929190611ae0565b6020604051808303815f875af11580156113f4573d5f5f3e3d5ffd5b505050506040513d601f19601f820116820180604052508101906114189190611a22565b905080611451576040517ff4643eea00000000000000000000000000000000000000000000000000000000815260040160405180910390fd5b50505050565b5f611461826111ff565b9050670de0b6b3a76400008110156114b057806040517f1bfc073a0000000000000000000000000000000000000000000000000000000081526004016114a791906115d2565b60405180910390fd5b5050565b6114bc611527565b156114f3576040517f3ee5aeb500000000000000000000000000000000000000000000000000000000815260040160405180910390fd5b565b5f7f9b779b17422d0df92223018b32b4d1fa46e071723d6817e2486d003becc55f005f1b905090565b5f819050919050565b5f600261153a6115356114f5565b61151e565b5f015414905090565b60405180606001604052805f81526020015f81526020015f81525090565b5f5ffd5b5f819050919050565b61157781611565565b8114611581575f5ffd5b50565b5f813590506115928161156e565b92915050565b5f602082840312156115ad576115ac611561565b5b5f6115ba84828501611584565b91505092915050565b6115cc81611565565b82525050565b5f6020820190506115e55f8301846115c3565b92915050565b5f73ffffffffffffffffffffffffffffffffffffffff82169050919050565b5f611614826115eb565b9050919050565b6116248161160a565b811461162e575f5ffd5b50565b5f8135905061163f8161161b565b92915050565b5f6020828403121561165a57611659611561565b5b5f61166784828501611631565b91505092915050565b5f5f6040838503121561168657611685611561565b5b5f61169385828601611584565b92505060206116a485828601611584565b9150509250929050565b6116b781611565565b82525050565b606082015f8201516116d15f8501826116ae565b5060208201516116e460208501826116ae565b5060408201516116f760408501826116ae565b50505050565b5f6060820190506117105f8301846116bd565b92915050565b61171f8161160a565b82525050565b5f6020820190506117385f830184611716565b92915050565b5f5f6040838503121561175457611753611561565b5b5f61176185828601611631565b925050602061177285828601611584565b9150509250929050565b5f819050919050565b5f61179f61179a611795846115eb565b61177c565b6115eb565b9050919050565b5f6117b082611785565b9050919050565b5f6117c1826117a6565b9050919050565b6117d1816117b7565b82525050565b5f6020820190506117ea5f8301846117c8565b92915050565b5f69ffffffffffffffffffff82169050919050565b61180e816117f0565b8114611818575f5ffd5b50565b5f8151905061182981611805565b92915050565b5f819050919050565b6118418161182f565b811461184b575f5ffd5b50565b5f8151905061185c81611838565b92915050565b5f815190506118708161156e565b92915050565b5f5f5f5f5f60a0868803121561188f5761188e611561565b5b5f61189c8882890161181b565b95505060206118ad8882890161184e565b94505060406118be88828901611862565b93505060606118cf88828901611862565b92505060806118e08882890161181b565b9150509295509295909350565b7f4e487b71000000000000000000000000000000000000000000000000000000005f52601160045260245ffd5b5f61192482611565565b915061192f83611565565b925082820261193d81611565565b91508282048414831517611954576119536118ed565b5b5092915050565b7f4e487b71000000000000000000000000000000000000000000000000000000005f52601260045260245ffd5b5f61199282611565565b915061199d83611565565b9250826119ad576119ac61195b565b5b828204905092915050565b5f6060820190506119cb5f830186611716565b6119d86020830185611716565b6119e560408301846115c3565b949350505050565b5f8115159050919050565b611a01816119ed565b8114611a0b575f5ffd5b50565b5f81519050611a1c816119f8565b92915050565b5f60208284031215611a3757611a36611561565b5b5f611a4484828501611a0e565b91505092915050565b5f611a5782611565565b9150611a6283611565565b9250828201905080821115611a7a57611a796118ed565b5b92915050565b5f606082019050611a935f8301866115c3565b611aa060208301856115c3565b611aad60408301846115c3565b949350505050565b5f60208284031215611aca57611ac9611561565b5b5f611ad784828501611862565b91505092915050565b5f604082019050611af35f830185611716565b611b0060208301846115c3565b9392505050565b5f611b1182611565565b9150611b1c83611565565b9250828203905081811115611b3457611b336118ed565b5b9291505056fea26469706673582212205bdb77359e7bb9402b946723fb783b34f59771a3509fa120b373186a6e3e7fee64736f6c63430008210033",
        "linkReferences": {
            "src/libraries/OracleLib.sol": {
                "OracleLib": [
                    {
                        "start": 1903,
                        "length": 20
                    },
                    {
                        "start": 4395,
                        "length": 20
                    }
                ]
            }
        }
    },
    "methodIdentifiers": {
        "burnAUSD(uint256)": "241df7c3",
        "depositCollateral(uint256)": "bad4a01f",
        "depositCollateralAndMintAUSD(uint256,uint256)": "7a87fc12",
        "getAUSD()": "b38f8982",
        "getAUSDMinted(address)": "7549447e",
        "getAccountCollateralValueInUsd(address)": "545af4fe",
        "getAccountInformation(address)": "7be564fc",
        "getAdditionalFeedPrecision()": "8f63d667",
        "getAmountCollateral(address)": "c2efe6ab",
        "getCollateralTokenPriceFeed()": "93c5103a",
        "getHealthFactor(address)": "fe6bcd7c",
        "getLiquidationBonus()": "59aa9e72",
        "getLiquidationCloseFactor()": "8e395721",
        "getLiquidationPrecision()": "6c8102c0",
        "getLiquidationThreshold()": "4ae9b8bc",
        "getMaxAUSDSupply()": "f8a601ac",
        "getMinDustThreshold()": "1ab72907",
        "getMinHealthFactor()": "8c1ae6c8",
        "getPrecision()": "9670c0bc",
        "getProtocolFee()": "a5a41031",
        "getTokenAmountFromUsd(uint256)": "05104358",
        "getUsdValue(uint256)": "073789e2",
        "liquidate(address,uint256)": "bcbaf487",
        "mintAUSD(uint256)": "cf80023e",
        "redeemCollateral(uint256)": "bd37b775",
        "redeemCollateralAndBurnAUSD(uint256,uint256)": "a901e9eb"
    },
    "id": 35
}