{
    "abi": [
        {
            "type": "constructor",
            "inputs": [
                {
                    "name": "tokenAddress",
                    "type": "address",
                    "internalType": "address"
                },
                {
                    "name": "priceFeedAddress",
                    "type": "address",
                    "internalType": "address"
                },
                {
                    "name": "auAddress",
                    "type": "address",
                    "internalType": "address"
                }
            ],
            "stateMutability": "nonpayable"
        },
        {
            "type": "function",
            "name": "burnAUSD",
            "inputs": [
                {
                    "name": "amount",
                    "type": "uint256",
                    "internalType": "uint256"
                }
            ],
            "outputs": [],
            "stateMutability": "nonpayable"
        },
        {
            "type": "function",
            "name": "depositCollateral",
            "inputs": [
                {
                    "name": "amountCollateral",
                    "type": "uint256",
                    "internalType": "uint256"
                }
            ],
            "outputs": [],
            "stateMutability": "nonpayable"
        },
        {
            "type": "function",
            "name": "depositCollateralAndMintAUSD",
            "inputs": [
                {
                    "name": "amountCollateral",
                    "type": "uint256",
                    "internalType": "uint256"
                },
                {
                    "name": "amountAUSDToMint",
                    "type": "uint256",
                    "internalType": "uint256"
                }
            ],
            "outputs": [],
            "stateMutability": "nonpayable"
        },
        {
            "type": "function",
            "name": "getAUSD",
            "inputs": [],
            "outputs": [
                {
                    "name": "",
                    "type": "address",
                    "internalType": "address"
                }
            ],
            "stateMutability": "view"
        },
        {
            "type": "function",
            "name": "getAUSDMinted",
            "inputs": [
                {
                    "name": "user",
                    "type": "address",
                    "internalType": "address"
                }
            ],
            "outputs": [
                {
                    "name": "",
                    "type": "uint256",
                    "internalType": "uint256"
                }
            ],
            "stateMutability": "view"
        },
        {
            "type": "function",
            "name": "getAccountCollateralValueInUsd",
            "inputs": [
                {
                    "name": "user",
                    "type": "address",
                    "internalType": "address"
                }
            ],
            "outputs": [
                {
                    "name": "",
                    "type": "uint256",
                    "internalType": "uint256"
                }
            ],
            "stateMutability": "view"
        },
        {
            "type": "function",
            "name": "getAccountInformation",
            "inputs": [
                {
                    "name": "user",
                    "type": "address",
                    "internalType": "address"
                }
            ],
            "outputs": [
                {
                    "name": "",
                    "type": "tuple",
                    "internalType": "struct AurumEngine.AccountInfo",
                    "components": [
                        {
                            "name": "healthFactor",
                            "type": "uint256",
                            "internalType": "uint256"
                        },
                        {
                            "name": "totalAUSDMinted",
                            "type": "uint256",
                            "internalType": "uint256"
                        },
                        {
                            "name": "collateralValueInUsd",
                            "type": "uint256",
                            "internalType": "uint256"
                        }
                    ]
                }
            ],
            "stateMutability": "view"
        },
        {
            "type": "function",
            "name": "getAdditionalFeedPrecision",
            "inputs": [],
            "outputs": [
                {
                    "name": "",
                    "type": "uint256",
                    "internalType": "uint256"
                }
            ],
            "stateMutability": "pure"
        },
        {
            "type": "function",
            "name": "getAmountCollateral",
            "inputs": [
                {
                    "name": "user",
                    "type": "address",
                    "internalType": "address"
                }
            ],
            "outputs": [
                {
                    "name": "",
                    "type": "uint256",
                    "internalType": "uint256"
                }
            ],
            "stateMutability": "view"
        },
        {
            "type": "function",
            "name": "getCollateralTokenPriceFeed",
            "inputs": [],
            "outputs": [
                {
                    "name": "",
                    "type": "address",
                    "internalType": "address"
                }
            ],
            "stateMutability": "view"
        },
        {
            "type": "function",
            "name": "getHealthFactor",
            "inputs": [
                {
                    "name": "user",
                    "type": "address",
                    "internalType": "address"
                }
            ],
            "outputs": [
                {
                    "name": "",
                    "type": "uint256",
                    "internalType": "uint256"
                }
            ],
            "stateMutability": "view"
        },
        {
            "type": "function",
            "name": "getLiquidationBonus",
            "inputs": [],
            "outputs": [
                {
                    "name": "",
                    "type": "uint256",
                    "internalType": "uint256"
                }
            ],
            "stateMutability": "pure"
        },
        {
            "type": "function",
            "name": "getLiquidationCloseFactor",
            "inputs": [],
            "outputs": [
                {
                    "name": "",
                    "type": "uint256",
                    "internalType": "uint256"
                }
            ],
            "stateMutability": "pure"
        },
        {
            "type": "function",
            "name": "getLiquidationPrecision",
            "inputs": [],
            "outputs": [
                {
                    "name": "",
                    "type": "uint256",
                    "internalType": "uint256"
                }
            ],
            "stateMutability": "pure"
        },
        {
            "type": "function",
            "name": "getLiquidationThreshold",
            "inputs": [],
            "outputs": [
                {
                    "name": "",
                    "type": "uint256",
                    "internalType": "uint256"
                }
            ],
            "stateMutability": "pure"
        },
        {
            "type": "function",
            "name": "getMaxAUSDSupply",
            "inputs": [],
            "outputs": [
                {
                    "name": "",
                    "type": "uint256",
                    "internalType": "uint256"
                }
            ],
            "stateMutability": "pure"
        },
        {
            "type": "function",
            "name": "getMinDustThreshold",
            "inputs": [],
            "outputs": [
                {
                    "name": "",
                    "type": "uint256",
                    "internalType": "uint256"
                }
            ],
            "stateMutability": "pure"
        },
        {
            "type": "function",
            "name": "getMinHealthFactor",
            "inputs": [],
            "outputs": [
                {
                    "name": "",
                    "type": "uint256",
                    "internalType": "uint256"
                }
            ],
            "stateMutability": "pure"
        },
        {
            "type": "function",
            "name": "getPrecision",
            "inputs": [],
            "outputs": [
                {
                    "name": "",
                    "type": "uint256",
                    "internalType": "uint256"
                }
            ],
            "stateMutability": "pure"
        },
        {
            "type": "function",
            "name": "getProtocolFee",
            "inputs": [],
            "outputs": [
                {
                    "name": "",
                    "type": "uint256",
                    "internalType": "uint256"
                }
            ],
            "stateMutability": "pure"
        },
        {
            "type": "function",
            "name": "getTokenAmountFromUsd",
            "inputs": [
                {
                    "name": "usdAmountInWei",
                    "type": "uint256",
                    "internalType": "uint256"
                }
            ],
            "outputs": [
                {
                    "name": "",
                    "type": "uint256",
                    "internalType": "uint256"
                }
            ],
            "stateMutability": "view"
        },
        {
            "type": "function",
            "name": "getUsdValue",
            "inputs": [
                {
                    "name": "amount",
                    "type": "uint256",
                    "internalType": "uint256"
                }
            ],
            "outputs": [
                {
                    "name": "",
                    "type": "uint256",
                    "internalType": "uint256"
                }
            ],
            "stateMutability": "view"
        },
        {
            "type": "function",
            "name": "liquidate",
            "inputs": [
                {
                    "name": "user",
                    "type": "address",
                    "internalType": "address"
                },
                {
                    "name": "debtToCover",
                    "type": "uint256",
                    "internalType": "uint256"
                }
            ],
            "outputs": [],
            "stateMutability": "nonpayable"
        },
        {
            "type": "function",
            "name": "mintAUSD",
            "inputs": [
                {
                    "name": "amountAUSDToMint",
                    "type": "uint256",
                    "internalType": "uint256"
                }
            ],
            "outputs": [],
            "stateMutability": "nonpayable"
        },
        {
            "type": "function",
            "name": "redeemCollateral",
            "inputs": [
                {
                    "name": "amountCollateral",
                    "type": "uint256",
                    "internalType": "uint256"
                }
            ],
            "outputs": [],
            "stateMutability": "nonpayable"
        },
        {
            "type": "function",
            "name": "redeemCollateralAndBurnAUSD",
            "inputs": [
                {
                    "name": "amountCollateral",
                    "type": "uint256",
                    "internalType": "uint256"
                },
                {
                    "name": "amountAUSDToBurn",
                    "type": "uint256",
                    "internalType": "uint256"
                }
            ],
            "outputs": [],
            "stateMutability": "nonpayable"
        },
        {
            "type": "event",
            "name": "BurnAUSD",
            "inputs": [
                {
                    "name": "user",
                    "type": "address",
                    "indexed": true,
                    "internalType": "address"
                },
                {
                    "name": "amount",
                    "type": "uint256",
                    "indexed": false,
                    "internalType": "uint256"
                }
            ],
            "anonymous": false
        },
        {
            "type": "event",
            "name": "CollateralDeposited",
            "inputs": [
                {
                    "name": "user",
                    "type": "address",
                    "indexed": true,
                    "internalType": "address"
                },
                {
                    "name": "amount",
                    "type": "uint256",
                    "indexed": true,
                    "internalType": "uint256"
                }
            ],
            "anonymous": false
        },
        {
            "type": "event",
            "name": "CollateralRedeemed",
            "inputs": [
                {
                    "name": "redeemedFrom",
                    "type": "address",
                    "indexed": true,
                    "internalType": "address"
                },
                {
                    "name": "redeemedTo",
                    "type": "address",
                    "indexed": true,
                    "internalType": "address"
                },
                {
                    "name": "amount",
                    "type": "uint256",
                    "indexed": false,
                    "internalType": "uint256"
                }
            ],
            "anonymous": false
        },
        {
            "type": "event",
            "name": "Liquidated",
            "inputs": [
                {
                    "name": "user",
                    "type": "address",
                    "indexed": true,
                    "internalType": "address"
                },
                {
                    "name": "liquidator",
                    "type": "address",
                    "indexed": true,
                    "internalType": "address"
                },
                {
                    "name": "debtToCover",
                    "type": "uint256",
                    "indexed": false,
                    "internalType": "uint256"
                },
                {
                    "name": "totalCollateralToRedeem",
                    "type": "uint256",
                    "indexed": false,
                    "internalType": "uint256"
                },
                {
                    "name": "protocolShare",
                    "type": "uint256",
                    "indexed": false,
                    "internalType": "uint256"
                }
            ],
            "anonymous": false
        },
        {
            "type": "event",
            "name": "MintAUSD",
            "inputs": [
                {
                    "name": "user",
                    "type": "address",
                    "indexed": true,
                    "internalType": "address"
                },
                {
                    "name": "amount",
                    "type": "uint256",
                    "indexed": false,
                    "internalType": "uint256"
                }
            ],
            "anonymous": false
        },
        {
            "type": "error",
            "name": "AurumEngine__BreaksHealthFactor",
            "inputs": [
                {
                    "name": "healthFactor",
                    "type": "uint256",
                    "internalType": "uint256"
                }
            ]
        },
        {
            "type": "error",
            "name": "AurumEngine__ExceedsMaxSupply",
            "inputs": []
        },
        {
            "type": "error",
            "name": "AurumEngine__HealthFactorNotImproved",
            "inputs": []
        },
        {
            "type": "error",
            "name": "AurumEngine__HealthFactorOkay",
            "inputs": []
        },
        {
            "type": "error",
            "name": "AurumEngine__MintFailed",
            "inputs": []
        },
        {
            "type": "error",
            "name": "AurumEngine__NeedsMoreThanZero",
            "inputs": []
        },
        {
            "type": "error",
            "name": "AurumEngine__TransferFailed",
            "inputs": []
        },
        {
            "type": "error",
            "name": "ReentrancyGuardReentrantCall",
            "inputs": []
        }
    ],
    "bytecode": {
        "object": "0x60a060405234801561000f575f5ffd5b50604051611e30380380611e30833981810160405281019061003191906101a0565b600161004f61004461011060201b60201c565b61013960201b60201c565b5f0181905550815f5f6101000a81548173ffffffffffffffffffffffffffffffffffffffff021916908373ffffffffffffffffffffffffffffffffffffffff1602179055508260035f6101000a81548173ffffffffffffffffffffffffffffffffffffffff021916908373ffffffffffffffffffffffffffffffffffffffff1602179055508073ffffffffffffffffffffffffffffffffffffffff1660808173ffffffffffffffffffffffffffffffffffffffff16815250505050506101f0565b5f7f9b779b17422d0df92223018b32b4d1fa46e071723d6817e2486d003becc55f005f1b905090565b5f819050919050565b5f5ffd5b5f73ffffffffffffffffffffffffffffffffffffffff82169050919050565b5f61016f82610146565b9050919050565b61017f81610165565b8114610189575f5ffd5b50565b5f8151905061019a81610176565b92915050565b5f5f5f606084860312156101b7576101b6610142565b5b5f6101c48682870161018c565b93505060206101d58682870161018c565b92505060406101e68682870161018c565b9150509250925092565b608051611c0c6102245f395f81816107b401528181610c9b01528181610e15015281816110ac01526111820152611c0c5ff3fe608060405234801561000f575f5ffd5b506004361061018c575f3560e01c80638f63d667116100dc578063bad4a01f11610095578063c2efe6ab1161006f578063c2efe6ab14610472578063cf80023e146104a2578063f8a601ac146104be578063fe6bcd7c146104dc5761018c565b8063bad4a01f1461041e578063bcbaf4871461043a578063bd37b775146104565761018c565b80638f63d6671461036c57806393c5103a1461038a5780639670c0bc146103a8578063a5a41031146103c6578063a901e9eb146103e4578063b38f8982146104005761018c565b806359aa9e72116101495780637a87fc12116101235780637a87fc12146102e45780637be564fc146103005780638c1ae6c8146103305780638e3957211461034e5761018c565b806359aa9e72146102785780636c8102c0146102965780637549447e146102b45761018c565b80630510435814610190578063073789e2146101c05780631ab72907146101f0578063241df7c31461020e5780634ae9b8bc1461022a578063545af4fe14610248575b5f5ffd5b6101aa60048036038101906101a59190611634565b61050c565b6040516101b7919061166e565b60405180910390f35b6101da60048036038101906101d59190611634565b6105fe565b6040516101e7919061166e565b60405180910390f35b6101f861060f565b604051610205919061166e565b60405180910390f35b61022860048036038101906102239190611634565b61061e565b005b610232610667565b60405161023f919061166e565b60405180910390f35b610262600480360381019061025d91906116e1565b61066f565b60405161026f919061166e565b60405180910390f35b610280610686565b60405161028d919061166e565b60405180910390f35b61029e61068e565b6040516102ab919061166e565b60405180910390f35b6102ce60048036038101906102c991906116e1565b610696565b6040516102db919061166e565b60405180910390f35b6102fe60048036038101906102f9919061170c565b6106dc565b005b61031a600480360381019061031591906116e1565b6106f2565b6040516103279190611799565b60405180910390f35b61033861073a565b604051610345919061166e565b60405180910390f35b610356610749565b604051610363919061166e565b60405180910390f35b610374610751565b604051610381919061166e565b60405180910390f35b61039261075d565b60405161039f91906117c1565b60405180910390f35b6103b0610784565b6040516103bd919061166e565b60405180910390f35b6103ce610793565b6040516103db919061166e565b60405180910390f35b6103fe60048036038101906103f9919061170c565b61079b565b005b6104086107b1565b60405161041591906117c1565b60405180910390f35b61043860048036038101906104339190611634565b6107d8565b005b610454600480360381019061044f91906117da565b610996565b005b610470600480360381019061046b9190611634565b610ba3565b005b61048c600480360381019061048791906116e1565b610c05565b604051610499919061166e565b60405180910390f35b6104bc60048036038101906104b79190611634565b610c4b565b005b6104c6610ef4565b6040516104d3919061166e565b60405180910390f35b6104f660048036038101906104f191906116e1565b610f05565b604051610503919061166e565b60405180910390f35b5f5f5f5f9054906101000a900473ffffffffffffffffffffffffffffffffffffffff1690505f8173ffffffffffffffffffffffffffffffffffffffff1673__$1f06ac8d622ce42796cee98ba1044ce165$__632ba1c96a90916040518263ffffffff1660e01b81526004016105819190611873565b60a060405180830381865af415801561059c573d5f5f3e3d5ffd5b505050506040513d601f19601f820116820180604052508101906105c09190611912565b5050509150506402540be400816105d791906119b6565b670de0b6b3a7640000856105eb91906119b6565b6105f59190611a24565b92505050919050565b5f61060882610f16565b9050919050565b5f670de0b6b3a7640000905090565b805f8103610658576040517f1afe6f9b00000000000000000000000000000000000000000000000000000000815260040160405180910390fd5b610663823333611008565b5050565b5f6050905090565b5f5f61067a8361120c565b91505080915050919050565b5f6005905090565b5f6064905090565b5f60025f8373ffffffffffffffffffffffffffffffffffffffff1673ffffffffffffffffffffffffffffffffffffffff1681526020019081526020015f20549050919050565b6106e5826107d8565b6106ee81610c4b565b5050565b6106fa6115df565b5f6107048361129b565b90505f5f6107118561120c565b915091506040518060600160405280848152602001838152602001828152509350505050919050565b5f670de0b6b3a7640000905090565b5f6032905090565b5f6402540be400905090565b5f5f5f9054906101000a900473ffffffffffffffffffffffffffffffffffffffff16905090565b5f670de0b6b3a7640000905090565b5f6005905090565b6107a48161061e565b6107ad82610ba3565b5050565b5f7f0000000000000000000000000000000000000000000000000000000000000000905090565b805f8103610812576040517f1afe6f9b00000000000000000000000000000000000000000000000000000000815260040160405180910390fd5b61081a611323565b5f60035f9054906101000a900473ffffffffffffffffffffffffffffffffffffffff1673ffffffffffffffffffffffffffffffffffffffff166323b872dd3330866040518463ffffffff1660e01b815260040161087993929190611a54565b6020604051808303815f875af1158015610895573d5f5f3e3d5ffd5b505050506040513d601f19601f820116820180604052508101906108b99190611abe565b9050806108f2576040517ff4643eea00000000000000000000000000000000000000000000000000000000815260040160405180910390fd5b8260015f3373ffffffffffffffffffffffffffffffffffffffff1673ffffffffffffffffffffffffffffffffffffffff1681526020019081526020015f205f82825461093e9190611ae9565b92505081905550823373ffffffffffffffffffffffffffffffffffffffff167fd7243f6f8212d5188fd054141cf6ea89cfc0d91facb8c3afe2f88a135848014260405160405180910390a350610992611345565b5050565b805f81036109d0576040517f1afe6f9b00000000000000000000000000000000000000000000000000000000815260040160405180910390fd5b6109d8611323565b5f6109e28461129b565b9050670de0b6b3a76400008110610a25576040517fe33e814c00000000000000000000000000000000000000000000000000000000815260040160405180910390fd5b5f60025f8673ffffffffffffffffffffffffffffffffffffffff1673ffffffffffffffffffffffffffffffffffffffff1681526020019081526020015f205490505f6064603283610a7691906119b6565b610a809190611a24565b905080851115610a8e578094505b670de0b6b3a7640000811015610aa2578194505b5f610aac8661050c565b90505f6064600583610abe91906119b6565b610ac89190611a24565b90505f6064600584610ada91906119b6565b610ae49190611a24565b90505f8184610af39190611ae9565b90505f8382610b029190611ae9565b9050610b0f8b338461135f565b610b1a8b308661135f565b610b258a8c33611008565b3373ffffffffffffffffffffffffffffffffffffffff168b73ffffffffffffffffffffffffffffffffffffffff167ffcbc974bf3a532baf2bb229db3c37fd58299b62d2d1db6a855dac5b693bb6ff38c8488604051610b8693929190611b1c565b60405180910390a35050505050505050610b9e611345565b505050565b805f8103610bdd576040517f1afe6f9b00000000000000000000000000000000000000000000000000000000815260040160405180910390fd5b610be5611323565b610bf033338461135f565b610bf9336114f3565b610c01611345565b5050565b5f60015f8373ffffffffffffffffffffffffffffffffffffffff1673ffffffffffffffffffffffffffffffffffffffff1681526020019081526020015f20549050919050565b805f8103610c85576040517f1afe6f9b00000000000000000000000000000000000000000000000000000000815260040160405180910390fd5b610c8d611323565b69d3c21bcecceda1000000827f000000000000000000000000000000000000000000000000000000000000000073ffffffffffffffffffffffffffffffffffffffff166318160ddd6040518163ffffffff1660e01b8152600401602060405180830381865afa158015610d02573d5f5f3e3d5ffd5b505050506040513d601f19601f82011682018060405250810190610d269190611b51565b610d309190611ae9565b1115610d68576040517fea5b569700000000000000000000000000000000000000000000000000000000815260040160405180910390fd5b8160025f3373ffffffffffffffffffffffffffffffffffffffff1673ffffffffffffffffffffffffffffffffffffffff1681526020019081526020015f205f828254610db49190611ae9565b92505081905550610dc4336114f3565b3373ffffffffffffffffffffffffffffffffffffffff167ffc782676bdec655891c2d4c362a405ba908bf6dfde5586faaf2da6284c4f1b1983604051610e0a919061166e565b60405180910390a25f7f000000000000000000000000000000000000000000000000000000000000000073ffffffffffffffffffffffffffffffffffffffff166340c10f1933856040518363ffffffff1660e01b8152600401610e6e929190611b7c565b6020604051808303815f875af1158015610e8a573d5f5f3e3d5ffd5b505050506040513d601f19601f82011682018060405250810190610eae9190611abe565b905080610ee7576040517fc071c41700000000000000000000000000000000000000000000000000000000815260040160405180910390fd5b50610ef0611345565b5050565b5f69d3c21bcecceda1000000905090565b5f610f0f8261129b565b9050919050565b5f5f5f5f9054906101000a900473ffffffffffffffffffffffffffffffffffffffff1690505f8173ffffffffffffffffffffffffffffffffffffffff1673__$1f06ac8d622ce42796cee98ba1044ce165$__632ba1c96a90916040518263ffffffff1660e01b8152600401610f8b9190611873565b60a060405180830381865af4158015610fa6573d5f5f3e3d5ffd5b505050506040513d601f19601f82011682018060405250810190610fca9190611912565b505050915050670de0b6b3a7640000846402540be40083610feb91906119b6565b610ff591906119b6565b610fff9190611a24565b92505050919050565b8260025f8473ffffffffffffffffffffffffffffffffffffffff1673ffffffffffffffffffffffffffffffffffffffff1681526020019081526020015f205f8282546110549190611ba3565b925050819055508173ffffffffffffffffffffffffffffffffffffffff167fa520bf83305c37bbf66c79d7104880f7b44bd3acc8d7c13e19587787acc8ed60846040516110a1919061166e565b60405180910390a25f7f000000000000000000000000000000000000000000000000000000000000000073ffffffffffffffffffffffffffffffffffffffff166323b872dd8330876040518463ffffffff1660e01b815260040161110793929190611a54565b6020604051808303815f875af1158015611123573d5f5f3e3d5ffd5b505050506040513d601f19601f820116820180604052508101906111479190611abe565b905080611180576040517ff4643eea00000000000000000000000000000000000000000000000000000000815260040160405180910390fd5b7f000000000000000000000000000000000000000000000000000000000000000073ffffffffffffffffffffffffffffffffffffffff166342966c68856040518263ffffffff1660e01b81526004016111d9919061166e565b5f604051808303815f87803b1580156111f0575f5ffd5b505af1158015611202573d5f5f3e3d5ffd5b5050505050505050565b5f5f60025f8473ffffffffffffffffffffffffffffffffffffffff1673ffffffffffffffffffffffffffffffffffffffff1681526020019081526020015f2054915061129460015f8573ffffffffffffffffffffffffffffffffffffffff1673ffffffffffffffffffffffffffffffffffffffff1681526020019081526020015f2054610f16565b9050915091565b5f5f5f6112a78461120c565b915091505f60646050836112bb91906119b6565b6112c59190611a24565b90505f83036112f9577fffffffffffffffffffffffffffffffffffffffffffffffffffffffffffffffff935050505061131e565b82670de0b6b3a76400008261130e91906119b6565b6113189190611a24565b93505050505b919050565b61132b611550565b600261133d611338611591565b6115ba565b5f0181905550565b6001611357611352611591565b6115ba565b5f0181905550565b8060015f8573ffffffffffffffffffffffffffffffffffffffff1673ffffffffffffffffffffffffffffffffffffffff1681526020019081526020015f205f8282546113ab9190611ba3565b925050819055508173ffffffffffffffffffffffffffffffffffffffff168373ffffffffffffffffffffffffffffffffffffffff167fa5f9505801b85736b93411e5083d5a6003f3add45d82754efd49b4cca6b8e0078360405161140f919061166e565b60405180910390a35f60035f9054906101000a900473ffffffffffffffffffffffffffffffffffffffff1673ffffffffffffffffffffffffffffffffffffffff1663a9059cbb84846040518363ffffffff1660e01b8152600401611474929190611b7c565b6020604051808303815f875af1158015611490573d5f5f3e3d5ffd5b505050506040513d601f19601f820116820180604052508101906114b49190611abe565b9050806114ed576040517ff4643eea00000000000000000000000000000000000000000000000000000000815260040160405180910390fd5b50505050565b5f6114fd8261129b565b9050670de0b6b3a764000081101561154c57806040517f1bfc073a000000000000000000000000000000000000000000000000000000008152600401611543919061166e565b60405180910390fd5b5050565b6115586115c3565b1561158f576040517f3ee5aeb500000000000000000000000000000000000000000000000000000000815260040160405180910390fd5b565b5f7f9b779b17422d0df92223018b32b4d1fa46e071723d6817e2486d003becc55f005f1b905090565b5f819050919050565b5f60026115d66115d1611591565b6115ba565b5f015414905090565b60405180606001604052805f81526020015f81526020015f81525090565b5f5ffd5b5f819050919050565b61161381611601565b811461161d575f5ffd5b50565b5f8135905061162e8161160a565b92915050565b5f60208284031215611649576116486115fd565b5b5f61165684828501611620565b91505092915050565b61166881611601565b82525050565b5f6020820190506116815f83018461165f565b92915050565b5f73ffffffffffffffffffffffffffffffffffffffff82169050919050565b5f6116b082611687565b9050919050565b6116c0816116a6565b81146116ca575f5ffd5b50565b5f813590506116db816116b7565b92915050565b5f602082840312156116f6576116f56115fd565b5b5f611703848285016116cd565b91505092915050565b5f5f60408385031215611722576117216115fd565b5b5f61172f85828601611620565b925050602061174085828601611620565b9150509250929050565b61175381611601565b82525050565b606082015f82015161176d5f85018261174a565b506020820151611780602085018261174a565b506040820151611793604085018261174a565b50505050565b5f6060820190506117ac5f830184611759565b92915050565b6117bb816116a6565b82525050565b5f6020820190506117d45f8301846117b2565b92915050565b5f5f604083850312156117f0576117ef6115fd565b5b5f6117fd858286016116cd565b925050602061180e85828601611620565b9150509250929050565b5f819050919050565b5f61183b61183661183184611687565b611818565b611687565b9050919050565b5f61184c82611821565b9050919050565b5f61185d82611842565b9050919050565b61186d81611853565b82525050565b5f6020820190506118865f830184611864565b92915050565b5f69ffffffffffffffffffff82169050919050565b6118aa8161188c565b81146118b4575f5ffd5b50565b5f815190506118c5816118a1565b92915050565b5f819050919050565b6118dd816118cb565b81146118e7575f5ffd5b50565b5f815190506118f8816118d4565b92915050565b5f8151905061190c8161160a565b92915050565b5f5f5f5f5f60a0868803121561192b5761192a6115fd565b5b5f611938888289016118b7565b9550506020611949888289016118ea565b945050604061195a888289016118fe565b935050606061196b888289016118fe565b925050608061197c888289016118b7565b9150509295509295909350565b7f4e487b71000000000000000000000000000000000000000000000000000000005f52601160045260245ffd5b5f6119c082611601565b91506119cb83611601565b92508282026119d981611601565b915082820484148315176119f0576119ef611989565b5b5092915050565b7f4e487b71000000000000000000000000000000000000000000000000000000005f52601260045260245ffd5b5f611a2e82611601565b9150611a3983611601565b925082611a4957611a486119f7565b5b828204905092915050565b5f606082019050611a675f8301866117b2565b611a7460208301856117b2565b611a81604083018461165f565b949350505050565b5f8115159050919050565b611a9d81611a89565b8114611aa7575f5ffd5b50565b5f81519050611ab881611a94565b92915050565b5f60208284031215611ad357611ad26115fd565b5b5f611ae084828501611aaa565b91505092915050565b5f611af382611601565b9150611afe83611601565b9250828201905080821115611b1657611b15611989565b5b92915050565b5f606082019050611b2f5f83018661165f565b611b3c602083018561165f565b611b49604083018461165f565b949350505050565b5f60208284031215611b6657611b656115fd565b5b5f611b73848285016118fe565b91505092915050565b5f604082019050611b8f5f8301856117b2565b611b9c602083018461165f565b9392505050565b5f611bad82611601565b9150611bb883611601565b9250828203905081811115611bd057611bcf611989565b5b9291505056fea26469706673582212209d502e9f93e750121f08ba1efaf7d7463bc75a75f020009237e6066638632ed664736f6c63430008210033",
        "linkReferences": {
            "src/libraries/OracleLib.sol": {
                "OracleLib": [
                    {
                        "start": 1903,
                        "length": 20
                    },
                    {
                        "start": 4473,
                        "length": 20
                    }
                ]
            }
        }
    },
    "methodIdentifiers": {
        "burnAUSD(uint256)": "241df7c3",
        "depositCollateral(uint256)": "bad4a01f",
        "depositCollateralAndMintAUSD(uint256,uint256)": "7a87fc12",
        "getAUSD()": "b38f8982",
        "getAUSDMinted(address)": "7549447e",
        "getAccountCollateralValueInUsd(address)": "545af4fe",
        "getAccountInformation(address)": "7be564fc",
        "getAdditionalFeedPrecision()": "8f63d667",
        "getAmountCollateral(address)": "c2efe6ab",
        "getCollateralTokenPriceFeed()": "93c5103a",
        "getHealthFactor(address)": "fe6bcd7c",
        "getLiquidationBonus()": "59aa9e72",
        "getLiquidationCloseFactor()": "8e395721",
        "getLiquidationPrecision()": "6c8102c0",
        "getLiquidationThreshold()": "4ae9b8bc",
        "getMaxAUSDSupply()": "f8a601ac",
        "getMinDustThreshold()": "1ab72907",
        "getMinHealthFactor()": "8c1ae6c8",
        "getPrecision()": "9670c0bc",
        "getProtocolFee()": "a5a41031",
        "getTokenAmountFromUsd(uint256)": "05104358",
        "getUsdValue(uint256)": "073789e2",
        "liquidate(address,uint256)": "bcbaf487",
        "mintAUSD(uint256)": "cf80023e",
        "redeemCollateral(uint256)": "bd37b775",
        "redeemCollateralAndBurnAUSD(uint256,uint256)": "a901e9eb"
    },
    "id": 35
}